{
  "_format": "hh-sol-artifact-1",
  "contractName": "LiquidityPool",
  "sourceName": "contracts/LiquidityPool.sol",
  "abi": [
    {
      "inputs": [
        {
          "internalType": "address",
          "name": "lpToken_",
          "type": "address"
        },
        {
          "internalType": "address",
          "name": "underlyingToken_",
          "type": "address"
        }
      ],
      "stateMutability": "nonpayable",
      "type": "constructor"
    },
    {
      "anonymous": false,
      "inputs": [
        {
          "indexed": false,
          "internalType": "address",
          "name": "depositor",
          "type": "address"
        },
        {
          "indexed": false,
          "internalType": "uint256",
          "name": "amount",
          "type": "uint256"
        }
      ],
      "name": "Deposit",
      "type": "event"
    },
    {
      "anonymous": false,
      "inputs": [
        {
          "indexed": false,
          "internalType": "address",
          "name": "lpTokenAddress",
          "type": "address"
        },
        {
          "indexed": false,
          "internalType": "address",
          "name": "underlyingTokenAddress",
          "type": "address"
        }
      ],
      "name": "LiquidityPoolCreated",
      "type": "event"
    },
    {
      "inputs": [
        {
          "internalType": "uint256",
          "name": "amount_",
          "type": "uint256"
        }
      ],
      "name": "deposit",
      "outputs": [],
      "stateMutability": "nonpayable",
      "type": "function"
    }
  ],
  "bytecode": "0x608060405234801561001057600080fd5b5060405161074b38038061074b83398181016040528101906100329190610108565b816000806101000a81548173ffffffffffffffffffffffffffffffffffffffff021916908373ffffffffffffffffffffffffffffffffffffffff16021790555080600160006101000a81548173ffffffffffffffffffffffffffffffffffffffff021916908373ffffffffffffffffffffffffffffffffffffffff1602179055507f3366ddec6d22baedae5089cdef368ab66cbf7cc63aec389ca0d4b54e447baa1b82826040516100e4929190610157565b60405180910390a150506101ce565b600081519050610102816101b7565b92915050565b6000806040838503121561011f5761011e6101b2565b5b600061012d858286016100f3565b925050602061013e858286016100f3565b9150509250929050565b61015181610180565b82525050565b600060408201905061016c6000830185610148565b6101796020830184610148565b9392505050565b600061018b82610192565b9050919050565b600073ffffffffffffffffffffffffffffffffffffffff82169050919050565b600080fd5b6101c081610180565b81146101cb57600080fd5b50565b61056e806101dd6000396000f3fe608060405234801561001057600080fd5b506004361061002b5760003560e01c8063b6b55f2514610030575b600080fd5b61004a600480360381019061004591906102d3565b61004c565b005b80600160009054906101000a900473ffffffffffffffffffffffffffffffffffffffff1673ffffffffffffffffffffffffffffffffffffffff1663dd62ed3e33306040518363ffffffff1660e01b81526004016100aa929190610391565b60206040518083038186803b1580156100c257600080fd5b505afa1580156100d6573d6000803e3d6000fd5b505050506040513d601f19601f820116820180604052508101906100fa9190610300565b101561013b576040517f08c379a00000000000000000000000000000000000000000000000000000000081526004016101329061041a565b60405180910390fd5b600160009054906101000a900473ffffffffffffffffffffffffffffffffffffffff1673ffffffffffffffffffffffffffffffffffffffff166323b872dd3330846040518463ffffffff1660e01b815260040161019a939291906103ba565b602060405180830381600087803b1580156101b457600080fd5b505af11580156101c8573d6000803e3d6000fd5b505050506040513d601f19601f820116820180604052508101906101ec91906102a6565b61022b576040517f08c379a00000000000000000000000000000000000000000000000000000000081526004016102229061043a565b60405180910390fd5b7fe1fffcc4923d04b559f4d29a8bfc6cda04eb5b0d3c460751c2402c5c5cc9109c338260405161025c9291906103f1565b60405180910390a150565b6000815190506102768161050a565b92915050565b60008135905061028b81610521565b92915050565b6000815190506102a081610521565b92915050565b6000602082840312156102bc576102bb6104b3565b5b60006102ca84828501610267565b91505092915050565b6000602082840312156102e9576102e86104b3565b5b60006102f78482850161027c565b91505092915050565b600060208284031215610316576103156104b3565b5b600061032484828501610291565b91505092915050565b6103368161046b565b82525050565b600061034960148361045a565b9150610354826104b8565b602082019050919050565b600061036c60178361045a565b9150610377826104e1565b602082019050919050565b61038b816104a9565b82525050565b60006040820190506103a6600083018561032d565b6103b3602083018461032d565b9392505050565b60006060820190506103cf600083018661032d565b6103dc602083018561032d565b6103e96040830184610382565b949350505050565b6000604082019050610406600083018561032d565b6104136020830184610382565b9392505050565b600060208201905081810360008301526104338161033c565b9050919050565b600060208201905081810360008301526104538161035f565b9050919050565b600082825260208201905092915050565b600061047682610489565b9050919050565b60008115159050919050565b600073ffffffffffffffffffffffffffffffffffffffff82169050919050565b6000819050919050565b600080fd5b7f6e6f7420656e6f75676820616c6c6f77616e6365000000000000000000000000600082015250565b7f7472616e7366657220646f206e6f742073756363656564000000000000000000600082015250565b6105138161047d565b811461051e57600080fd5b50565b61052a816104a9565b811461053557600080fd5b5056fea264697066735822122031995c24b11b74dd321001adedb84d3bd5bbd4016f598774b0a6dbec8228d4a464736f6c63430008070033",
  "linkReferences": {},
  "deployedLinkReferences": {}
}