{
  "_format": "hh-sol-artifact-1",
  "contractName": "LPToken",
  "sourceName": "contracts/LPToken.sol",
  "abi": [
    {
      "inputs": [
        {
          "internalType": "uint256",
          "name": "initialSupply_",
          "type": "uint256"
        }
      ],
      "stateMutability": "nonpayable",
      "type": "constructor"
    },
    {
      "anonymous": false,
      "inputs": [
        {
          "indexed": true,
          "internalType": "address",
          "name": "owner",
          "type": "address"
        },
        {
          "indexed": true,
          "internalType": "address",
          "name": "spender",
          "type": "address"
        },
        {
          "indexed": false,
          "internalType": "uint256",
          "name": "value",
          "type": "uint256"
        }
      ],
      "name": "Approval",
      "type": "event"
    },
    {
      "anonymous": false,
      "inputs": [
        {
          "indexed": true,
          "internalType": "address",
          "name": "previousOwner",
          "type": "address"
        },
        {
          "indexed": true,
          "internalType": "address",
          "name": "newOwner",
          "type": "address"
        }
      ],
      "name": "OwnershipTransferred",
      "type": "event"
    },
    {
      "anonymous": false,
      "inputs": [
        {
          "indexed": true,
          "internalType": "address",
          "name": "from",
          "type": "address"
        },
        {
          "indexed": true,
          "internalType": "address",
          "name": "to",
          "type": "address"
        },
        {
          "indexed": false,
          "internalType": "uint256",
          "name": "value",
          "type": "uint256"
        }
      ],
      "name": "Transfer",
      "type": "event"
    },
    {
      "inputs": [
        {
          "internalType": "address",
          "name": "owner",
          "type": "address"
        },
        {
          "internalType": "address",
          "name": "spender",
          "type": "address"
        }
      ],
      "name": "allowance",
      "outputs": [
        {
          "internalType": "uint256",
          "name": "",
          "type": "uint256"
        }
      ],
      "stateMutability": "view",
      "type": "function"
    },
    {
      "inputs": [
        {
          "internalType": "address",
          "name": "spender",
          "type": "address"
        },
        {
          "internalType": "uint256",
          "name": "amount",
          "type": "uint256"
        }
      ],
      "name": "approve",
      "outputs": [
        {
          "internalType": "bool",
          "name": "",
          "type": "bool"
        }
      ],
      "stateMutability": "nonpayable",
      "type": "function"
    },
    {
      "inputs": [
        {
          "internalType": "address",
          "name": "account",
          "type": "address"
        }
      ],
      "name": "balanceOf",
      "outputs": [
        {
          "internalType": "uint256",
          "name": "",
          "type": "uint256"
        }
      ],
      "stateMutability": "view",
      "type": "function"
    },
    {
      "inputs": [],
      "name": "decimals",
      "outputs": [
        {
          "internalType": "uint8",
          "name": "",
          "type": "uint8"
        }
      ],
      "stateMutability": "view",
      "type": "function"
    },
    {
      "inputs": [
        {
          "internalType": "address",
          "name": "spender",
          "type": "address"
        },
        {
          "internalType": "uint256",
          "name": "subtractedValue",
          "type": "uint256"
        }
      ],
      "name": "decreaseAllowance",
      "outputs": [
        {
          "internalType": "bool",
          "name": "",
          "type": "bool"
        }
      ],
      "stateMutability": "nonpayable",
      "type": "function"
    },
    {
      "inputs": [
        {
          "internalType": "address",
          "name": "spender",
          "type": "address"
        },
        {
          "internalType": "uint256",
          "name": "addedValue",
          "type": "uint256"
        }
      ],
      "name": "increaseAllowance",
      "outputs": [
        {
          "internalType": "bool",
          "name": "",
          "type": "bool"
        }
      ],
      "stateMutability": "nonpayable",
      "type": "function"
    },
    {
      "inputs": [
        {
          "internalType": "address",
          "name": "recipient_",
          "type": "address"
        },
        {
          "internalType": "uint256",
          "name": "amount_",
          "type": "uint256"
        }
      ],
      "name": "mint",
      "outputs": [],
      "stateMutability": "nonpayable",
      "type": "function"
    },
    {
      "inputs": [],
      "name": "name",
      "outputs": [
        {
          "internalType": "string",
          "name": "",
          "type": "string"
        }
      ],
      "stateMutability": "view",
      "type": "function"
    },
    {
      "inputs": [],
      "name": "owner",
      "outputs": [
        {
          "internalType": "address",
          "name": "",
          "type": "address"
        }
      ],
      "stateMutability": "view",
      "type": "function"
    },
    {
      "inputs": [],
      "name": "renounceOwnership",
      "outputs": [],
      "stateMutability": "nonpayable",
      "type": "function"
    },
    {
      "inputs": [
        {
          "internalType": "address",
          "name": "minter_",
          "type": "address"
        }
      ],
      "name": "setMinter",
      "outputs": [],
      "stateMutability": "nonpayable",
      "type": "function"
    },
    {
      "inputs": [],
      "name": "symbol",
      "outputs": [
        {
          "internalType": "string",
          "name": "",
          "type": "string"
        }
      ],
      "stateMutability": "view",
      "type": "function"
    },
    {
      "inputs": [],
      "name": "totalSupply",
      "outputs": [
        {
          "internalType": "uint256",
          "name": "",
          "type": "uint256"
        }
      ],
      "stateMutability": "view",
      "type": "function"
    },
    {
      "inputs": [
        {
          "internalType": "address",
          "name": "recipient",
          "type": "address"
        },
        {
          "internalType": "uint256",
          "name": "amount",
          "type": "uint256"
        }
      ],
      "name": "transfer",
      "outputs": [
        {
          "internalType": "bool",
          "name": "",
          "type": "bool"
        }
      ],
      "stateMutability": "nonpayable",
      "type": "function"
    },
    {
      "inputs": [
        {
          "internalType": "address",
          "name": "sender",
          "type": "address"
        },
        {
          "internalType": "address",
          "name": "recipient",
          "type": "address"
        },
        {
          "internalType": "uint256",
          "name": "amount",
          "type": "uint256"
        }
      ],
      "name": "transferFrom",
      "outputs": [
        {
          "internalType": "bool",
          "name": "",
          "type": "bool"
        }
      ],
      "stateMutability": "nonpayable",
      "type": "function"
    },
    {
      "inputs": [
        {
          "internalType": "address",
          "name": "newOwner",
          "type": "address"
        }
      ],
      "name": "transferOwnership",
      "outputs": [],
      "stateMutability": "nonpayable",
      "type": "function"
    }
  ],
  "bytecode": "0x60806040523480156200001157600080fd5b50604051620022bc380380620022bc833981810160405281019062000037919062000428565b6040518060400160405280600881526020017f4c5020546f6b656e0000000000000000000000000000000000000000000000008152506040518060400160405280600381526020017f4c505400000000000000000000000000000000000000000000000000000000008152508160039080519060200190620000bb92919062000361565b508060049080519060200190620000d492919062000361565b505050620000f7620000eb6200011060201b60201c565b6200011860201b60201c565b620001093382620001de60201b60201c565b5062000625565b600033905090565b6000600560009054906101000a900473ffffffffffffffffffffffffffffffffffffffff16905081600560006101000a81548173ffffffffffffffffffffffffffffffffffffffff021916908373ffffffffffffffffffffffffffffffffffffffff1602179055508173ffffffffffffffffffffffffffffffffffffffff168173ffffffffffffffffffffffffffffffffffffffff167f8be0079c531659141344cd1fd0a4f28419497f9722a3daafe3b4186f6b6457e060405160405180910390a35050565b600073ffffffffffffffffffffffffffffffffffffffff168273ffffffffffffffffffffffffffffffffffffffff16141562000251576040517f08c379a0000000000000000000000000000000000000000000000000000000008152600401620002489062000492565b60405180910390fd5b62000265600083836200035760201b60201c565b8060026000828254620002799190620004e2565b92505081905550806000808473ffffffffffffffffffffffffffffffffffffffff1673ffffffffffffffffffffffffffffffffffffffff1681526020019081526020016000206000828254620002d09190620004e2565b925050819055508173ffffffffffffffffffffffffffffffffffffffff16600073ffffffffffffffffffffffffffffffffffffffff167fddf252ad1be2c89b69c2b068fc378daa952ba7f163c4a11628f55a4df523b3ef83604051620003379190620004b4565b60405180910390a362000353600083836200035c60201b60201c565b5050565b505050565b505050565b8280546200036f9062000549565b90600052602060002090601f016020900481019282620003935760008555620003df565b82601f10620003ae57805160ff1916838001178555620003df565b82800160010185558215620003df579182015b82811115620003de578251825591602001919060010190620003c1565b5b509050620003ee9190620003f2565b5090565b5b808211156200040d576000816000905550600101620003f3565b5090565b60008151905062000422816200060b565b92915050565b600060208284031215620004415762000440620005dd565b5b6000620004518482850162000411565b91505092915050565b600062000469601f83620004d1565b91506200047682620005e2565b602082019050919050565b6200048c816200053f565b82525050565b60006020820190508181036000830152620004ad816200045a565b9050919050565b6000602082019050620004cb600083018462000481565b92915050565b600082825260208201905092915050565b6000620004ef826200053f565b9150620004fc836200053f565b9250827fffffffffffffffffffffffffffffffffffffffffffffffffffffffffffffffff038211156200053457620005336200057f565b5b828201905092915050565b6000819050919050565b600060028204905060018216806200056257607f821691505b60208210811415620005795762000578620005ae565b5b50919050565b7f4e487b7100000000000000000000000000000000000000000000000000000000600052601160045260246000fd5b7f4e487b7100000000000000000000000000000000000000000000000000000000600052602260045260246000fd5b600080fd5b7f45524332303a206d696e7420746f20746865207a65726f206164647265737300600082015250565b62000616816200053f565b81146200062257600080fd5b50565b611c8780620006356000396000f3fe608060405234801561001057600080fd5b50600436106101005760003560e01c8063715018a611610097578063a9059cbb11610066578063a9059cbb146102b1578063dd62ed3e146102e1578063f2fde38b14610311578063fca3b5aa1461032d57610100565b8063715018a61461023b5780638da5cb5b1461024557806395d89b4114610263578063a457c2d71461028157610100565b8063313ce567116100d3578063313ce567146101a157806339509351146101bf57806340c10f19146101ef57806370a082311461020b57610100565b806306fdde0314610105578063095ea7b31461012357806318160ddd1461015357806323b872dd14610171575b600080fd5b61010d610349565b60405161011a919061158f565b60405180910390f35b61013d60048036038101906101389190611300565b6103db565b60405161014a9190611574565b60405180910390f35b61015b6103f9565b6040516101689190611731565b60405180910390f35b61018b600480360381019061018691906112ad565b610403565b6040516101989190611574565b60405180910390f35b6101a96104fb565b6040516101b6919061174c565b60405180910390f35b6101d960048036038101906101d49190611300565b610504565b6040516101e69190611574565b60405180910390f35b61020960048036038101906102049190611300565b6105b0565b005b61022560048036038101906102209190611240565b6106be565b6040516102329190611731565b60405180910390f35b610243610706565b005b61024d61078e565b60405161025a9190611559565b60405180910390f35b61026b6107b8565b604051610278919061158f565b60405180910390f35b61029b60048036038101906102969190611300565b61084a565b6040516102a89190611574565b60405180910390f35b6102cb60048036038101906102c69190611300565b610935565b6040516102d89190611574565b60405180910390f35b6102fb60048036038101906102f6919061126d565b610953565b6040516103089190611731565b60405180910390f35b61032b60048036038101906103269190611240565b6109da565b005b61034760048036038101906103429190611240565b610ad2565b005b60606003805461035890611861565b80601f016020809104026020016040519081016040528092919081815260200182805461038490611861565b80156103d15780601f106103a6576101008083540402835291602001916103d1565b820191906000526020600020905b8154815290600101906020018083116103b457829003601f168201915b5050505050905090565b60006103ef6103e8610b92565b8484610b9a565b6001905092915050565b6000600254905090565b6000610410848484610d65565b6000600160008673ffffffffffffffffffffffffffffffffffffffff1673ffffffffffffffffffffffffffffffffffffffff168152602001908152602001600020600061045b610b92565b73ffffffffffffffffffffffffffffffffffffffff1673ffffffffffffffffffffffffffffffffffffffff168152602001908152602001600020549050828110156104db576040517f08c379a00000000000000000000000000000000000000000000000000000000081526004016104d290611671565b60405180910390fd5b6104ef856104e7610b92565b858403610b9a565b60019150509392505050565b60006012905090565b60006105a6610511610b92565b84846001600061051f610b92565b73ffffffffffffffffffffffffffffffffffffffff1673ffffffffffffffffffffffffffffffffffffffff16815260200190815260200160002060008873ffffffffffffffffffffffffffffffffffffffff1673ffffffffffffffffffffffffffffffffffffffff168152602001908152602001600020546105a19190611783565b610b9a565b6001905092915050565b600073ffffffffffffffffffffffffffffffffffffffff168273ffffffffffffffffffffffffffffffffffffffff161415610620576040517f08c379a000000000000000000000000000000000000000000000000000000000815260040161061790611651565b60405180910390fd5b600660009054906101000a900473ffffffffffffffffffffffffffffffffffffffff1673ffffffffffffffffffffffffffffffffffffffff163373ffffffffffffffffffffffffffffffffffffffff16146106b0576040517f08c379a00000000000000000000000000000000000000000000000000000000081526004016106a7906115d1565b60405180910390fd5b6106ba8282610fe6565b5050565b60008060008373ffffffffffffffffffffffffffffffffffffffff1673ffffffffffffffffffffffffffffffffffffffff168152602001908152602001600020549050919050565b61070e610b92565b73ffffffffffffffffffffffffffffffffffffffff1661072c61078e565b73ffffffffffffffffffffffffffffffffffffffff1614610782576040517f08c379a000000000000000000000000000000000000000000000000000000000815260040161077990611691565b60405180910390fd5b61078c6000611146565b565b6000600560009054906101000a900473ffffffffffffffffffffffffffffffffffffffff16905090565b6060600480546107c790611861565b80601f01602080910402602001604051908101604052809291908181526020018280546107f390611861565b80156108405780601f1061081557610100808354040283529160200191610840565b820191906000526020600020905b81548152906001019060200180831161082357829003601f168201915b5050505050905090565b60008060016000610859610b92565b73ffffffffffffffffffffffffffffffffffffffff1673ffffffffffffffffffffffffffffffffffffffff16815260200190815260200160002060008573ffffffffffffffffffffffffffffffffffffffff1673ffffffffffffffffffffffffffffffffffffffff16815260200190815260200160002054905082811015610916576040517f08c379a000000000000000000000000000000000000000000000000000000000815260040161090d906116f1565b60405180910390fd5b61092a610921610b92565b85858403610b9a565b600191505092915050565b6000610949610942610b92565b8484610d65565b6001905092915050565b6000600160008473ffffffffffffffffffffffffffffffffffffffff1673ffffffffffffffffffffffffffffffffffffffff16815260200190815260200160002060008373ffffffffffffffffffffffffffffffffffffffff1673ffffffffffffffffffffffffffffffffffffffff16815260200190815260200160002054905092915050565b6109e2610b92565b73ffffffffffffffffffffffffffffffffffffffff16610a0061078e565b73ffffffffffffffffffffffffffffffffffffffff1614610a56576040517f08c379a0000000000000000000000000000000000000000000000000000000008152600401610a4d90611691565b60405180910390fd5b600073ffffffffffffffffffffffffffffffffffffffff168173ffffffffffffffffffffffffffffffffffffffff161415610ac6576040517f08c379a0000000000000000000000000000000000000000000000000000000008152600401610abd906115f1565b60405180910390fd5b610acf81611146565b50565b610ada610b92565b73ffffffffffffffffffffffffffffffffffffffff16610af861078e565b73ffffffffffffffffffffffffffffffffffffffff1614610b4e576040517f08c379a0000000000000000000000000000000000000000000000000000000008152600401610b4590611691565b60405180910390fd5b80600660006101000a81548173ffffffffffffffffffffffffffffffffffffffff021916908373ffffffffffffffffffffffffffffffffffffffff16021790555050565b600033905090565b600073ffffffffffffffffffffffffffffffffffffffff168373ffffffffffffffffffffffffffffffffffffffff161415610c0a576040517f08c379a0000000000000000000000000000000000000000000000000000000008152600401610c01906116d1565b60405180910390fd5b600073ffffffffffffffffffffffffffffffffffffffff168273ffffffffffffffffffffffffffffffffffffffff161415610c7a576040517f08c379a0000000000000000000000000000000000000000000000000000000008152600401610c7190611611565b60405180910390fd5b80600160008573ffffffffffffffffffffffffffffffffffffffff1673ffffffffffffffffffffffffffffffffffffffff16815260200190815260200160002060008473ffffffffffffffffffffffffffffffffffffffff1673ffffffffffffffffffffffffffffffffffffffff168152602001908152602001600020819055508173ffffffffffffffffffffffffffffffffffffffff168373ffffffffffffffffffffffffffffffffffffffff167f8c5be1e5ebec7d5bd14f71427d1e84f3dd0314c0f7b2291e5b200ac8c7c3b92583604051610d589190611731565b60405180910390a3505050565b600073ffffffffffffffffffffffffffffffffffffffff168373ffffffffffffffffffffffffffffffffffffffff161415610dd5576040517f08c379a0000000000000000000000000000000000000000000000000000000008152600401610dcc906116b1565b60405180910390fd5b600073ffffffffffffffffffffffffffffffffffffffff168273ffffffffffffffffffffffffffffffffffffffff161415610e45576040517f08c379a0000000000000000000000000000000000000000000000000000000008152600401610e3c906115b1565b60405180910390fd5b610e5083838361120c565b60008060008573ffffffffffffffffffffffffffffffffffffffff1673ffffffffffffffffffffffffffffffffffffffff16815260200190815260200160002054905081811015610ed6576040517f08c379a0000000000000000000000000000000000000000000000000000000008152600401610ecd90611631565b60405180910390fd5b8181036000808673ffffffffffffffffffffffffffffffffffffffff1673ffffffffffffffffffffffffffffffffffffffff16815260200190815260200160002081905550816000808573ffffffffffffffffffffffffffffffffffffffff1673ffffffffffffffffffffffffffffffffffffffff1681526020019081526020016000206000828254610f699190611783565b925050819055508273ffffffffffffffffffffffffffffffffffffffff168473ffffffffffffffffffffffffffffffffffffffff167fddf252ad1be2c89b69c2b068fc378daa952ba7f163c4a11628f55a4df523b3ef84604051610fcd9190611731565b60405180910390a3610fe0848484611211565b50505050565b600073ffffffffffffffffffffffffffffffffffffffff168273ffffffffffffffffffffffffffffffffffffffff161415611056576040517f08c379a000000000000000000000000000000000000000000000000000000000815260040161104d90611711565b60405180910390fd5b6110626000838361120c565b80600260008282546110749190611783565b92505081905550806000808473ffffffffffffffffffffffffffffffffffffffff1673ffffffffffffffffffffffffffffffffffffffff16815260200190815260200160002060008282546110c99190611783565b925050819055508173ffffffffffffffffffffffffffffffffffffffff16600073ffffffffffffffffffffffffffffffffffffffff167fddf252ad1be2c89b69c2b068fc378daa952ba7f163c4a11628f55a4df523b3ef8360405161112e9190611731565b60405180910390a361114260008383611211565b5050565b6000600560009054906101000a900473ffffffffffffffffffffffffffffffffffffffff16905081600560006101000a81548173ffffffffffffffffffffffffffffffffffffffff021916908373ffffffffffffffffffffffffffffffffffffffff1602179055508173ffffffffffffffffffffffffffffffffffffffff168173ffffffffffffffffffffffffffffffffffffffff167f8be0079c531659141344cd1fd0a4f28419497f9722a3daafe3b4186f6b6457e060405160405180910390a35050565b505050565b505050565b60008135905061122581611c23565b92915050565b60008135905061123a81611c3a565b92915050565b600060208284031215611256576112556118f1565b5b600061126484828501611216565b91505092915050565b60008060408385031215611284576112836118f1565b5b600061129285828601611216565b92505060206112a385828601611216565b9150509250929050565b6000806000606084860312156112c6576112c56118f1565b5b60006112d486828701611216565b93505060206112e586828701611216565b92505060406112f68682870161122b565b9150509250925092565b60008060408385031215611317576113166118f1565b5b600061132585828601611216565b92505060206113368582860161122b565b9150509250929050565b611349816117d9565b82525050565b611358816117eb565b82525050565b600061136982611767565b6113738185611772565b935061138381856020860161182e565b61138c816118f6565b840191505092915050565b60006113a4602383611772565b91506113af82611907565b604082019050919050565b60006113c7601f83611772565b91506113d282611956565b602082019050919050565b60006113ea602683611772565b91506113f58261197f565b604082019050919050565b600061140d602283611772565b9150611418826119ce565b604082019050919050565b6000611430602683611772565b915061143b82611a1d565b604082019050919050565b6000611453601883611772565b915061145e82611a6c565b602082019050919050565b6000611476602883611772565b915061148182611a95565b604082019050919050565b6000611499602083611772565b91506114a482611ae4565b602082019050919050565b60006114bc602583611772565b91506114c782611b0d565b604082019050919050565b60006114df602483611772565b91506114ea82611b5c565b604082019050919050565b6000611502602583611772565b915061150d82611bab565b604082019050919050565b6000611525601f83611772565b915061153082611bfa565b602082019050919050565b61154481611817565b82525050565b61155381611821565b82525050565b600060208201905061156e6000830184611340565b92915050565b6000602082019050611589600083018461134f565b92915050565b600060208201905081810360008301526115a9818461135e565b905092915050565b600060208201905081810360008301526115ca81611397565b9050919050565b600060208201905081810360008301526115ea816113ba565b9050919050565b6000602082019050818103600083015261160a816113dd565b9050919050565b6000602082019050818103600083015261162a81611400565b9050919050565b6000602082019050818103600083015261164a81611423565b9050919050565b6000602082019050818103600083015261166a81611446565b9050919050565b6000602082019050818103600083015261168a81611469565b9050919050565b600060208201905081810360008301526116aa8161148c565b9050919050565b600060208201905081810360008301526116ca816114af565b9050919050565b600060208201905081810360008301526116ea816114d2565b9050919050565b6000602082019050818103600083015261170a816114f5565b9050919050565b6000602082019050818103600083015261172a81611518565b9050919050565b6000602082019050611746600083018461153b565b92915050565b6000602082019050611761600083018461154a565b92915050565b600081519050919050565b600082825260208201905092915050565b600061178e82611817565b915061179983611817565b9250827fffffffffffffffffffffffffffffffffffffffffffffffffffffffffffffffff038211156117ce576117cd611893565b5b828201905092915050565b60006117e4826117f7565b9050919050565b60008115159050919050565b600073ffffffffffffffffffffffffffffffffffffffff82169050919050565b6000819050919050565b600060ff82169050919050565b60005b8381101561184c578082015181840152602081019050611831565b8381111561185b576000848401525b50505050565b6000600282049050600182168061187957607f821691505b6020821081141561188d5761188c6118c2565b5b50919050565b7f4e487b7100000000000000000000000000000000000000000000000000000000600052601160045260246000fd5b7f4e487b7100000000000000000000000000000000000000000000000000000000600052602260045260246000fd5b600080fd5b6000601f19601f8301169050919050565b7f45524332303a207472616e7366657220746f20746865207a65726f206164647260008201527f6573730000000000000000000000000000000000000000000000000000000000602082015250565b7f6e6f7420617574686f72697a656420746f206d696e74206c7020746f6b656e00600082015250565b7f4f776e61626c653a206e6577206f776e657220697320746865207a65726f206160008201527f6464726573730000000000000000000000000000000000000000000000000000602082015250565b7f45524332303a20617070726f766520746f20746865207a65726f20616464726560008201527f7373000000000000000000000000000000000000000000000000000000000000602082015250565b7f45524332303a207472616e7366657220616d6f756e742065786365656473206260008201527f616c616e63650000000000000000000000000000000000000000000000000000602082015250565b7f7a65726f2061646472657373206e6f7420616c6c6f7765640000000000000000600082015250565b7f45524332303a207472616e7366657220616d6f756e742065786365656473206160008201527f6c6c6f77616e6365000000000000000000000000000000000000000000000000602082015250565b7f4f776e61626c653a2063616c6c6572206973206e6f7420746865206f776e6572600082015250565b7f45524332303a207472616e736665722066726f6d20746865207a65726f20616460008201527f6472657373000000000000000000000000000000000000000000000000000000602082015250565b7f45524332303a20617070726f76652066726f6d20746865207a65726f2061646460008201527f7265737300000000000000000000000000000000000000000000000000000000602082015250565b7f45524332303a2064656372656173656420616c6c6f77616e63652062656c6f7760008201527f207a65726f000000000000000000000000000000000000000000000000000000602082015250565b7f45524332303a206d696e7420746f20746865207a65726f206164647265737300600082015250565b611c2c816117d9565b8114611c3757600080fd5b50565b611c4381611817565b8114611c4e57600080fd5b5056fea26469706673582212201c82edfe663624e4d0806ffe9ed8f5da1287a62af2ccf1c8c4ff110b6103a2ea64736f6c63430008070033",
  "linkReferences": {},
  "deployedLinkReferences": {}
}